{
  "_format": "hh-sol-artifact-1",
  "contractName": "VendingMachine",
  "sourceName": "contracts/VendingMachine.sol",
  "abi": [
    {
      "inputs": [],
      "stateMutability": "nonpayable",
      "type": "constructor"
    },
    {
      "inputs": [],
      "name": "checkBalance",
      "outputs": [
        {
          "internalType": "uint256",
          "name": "",
          "type": "uint256"
        }
      ],
      "stateMutability": "view",
      "type": "function"
    },
    {
      "inputs": [],
      "name": "checkQuantity",
      "outputs": [
        {
          "internalType": "uint256",
          "name": "",
          "type": "uint256"
        }
      ],
      "stateMutability": "view",
      "type": "function"
    },
    {
      "inputs": [
        {
          "internalType": "address",
          "name": "",
          "type": "address"
        }
      ],
      "name": "donut",
      "outputs": [
        {
          "internalType": "uint256",
          "name": "",
          "type": "uint256"
        }
      ],
      "stateMutability": "view",
      "type": "function"
    },
    {
      "inputs": [],
      "name": "getBalance",
      "outputs": [],
      "stateMutability": "nonpayable",
      "type": "function"
    },
    {
      "inputs": [
        {
          "internalType": "uint256",
          "name": "amount",
          "type": "uint256"
        }
      ],
      "name": "purchase",
      "outputs": [],
      "stateMutability": "payable",
      "type": "function"
    },
    {
      "inputs": [
        {
          "internalType": "uint256",
          "name": "_amount",
          "type": "uint256"
        }
      ],
      "name": "restock",
      "outputs": [],
      "stateMutability": "nonpayable",
      "type": "function"
    }
  ],
  "bytecode": "0x608060405234801561001057600080fd5b50336000806101000a81548173ffffffffffffffffffffffffffffffffffffffff021916908373ffffffffffffffffffffffffffffffffffffffff1602179055506064600160003073ffffffffffffffffffffffffffffffffffffffff1673ffffffffffffffffffffffffffffffffffffffff16815260200190815260200160002081905550610a27806100a56000396000f3fe6080604052600436106100555760003560e01c806312065fe01461005a5780639c8366ad14610071578063a299dff41461009c578063c21a702a146100d9578063c71daccb14610102578063efef39a11461012d575b600080fd5b34801561006657600080fd5b5061006f610149565b005b34801561007d57600080fd5b50610086610283565b604051610093919061077e565b60405180910390f35b3480156100a857600080fd5b506100c360048036038101906100be9190610611565b6102ca565b6040516100d0919061077e565b60405180910390f35b3480156100e557600080fd5b5061010060048036038101906100fb919061063a565b6102e2565b005b34801561010e57600080fd5b506101176103c9565b604051610124919061077e565b60405180910390f35b6101476004803603810190610142919061063a565b610460565b005b60008054906101000a900473ffffffffffffffffffffffffffffffffffffffff1673ffffffffffffffffffffffffffffffffffffffff163373ffffffffffffffffffffffffffffffffffffffff16146101d7576040517f08c379a00000000000000000000000000000000000000000000000000000000081526004016101ce9061073e565b60405180910390fd5b6000471161021a576040517f08c379a00000000000000000000000000000000000000000000000000000000081526004016102119061071e565b60405180910390fd5b60008054906101000a900473ffffffffffffffffffffffffffffffffffffffff1673ffffffffffffffffffffffffffffffffffffffff166108fc479081150290604051600060405180830381858888f19350505050158015610280573d6000803e3d6000fd5b50565b6000600160003073ffffffffffffffffffffffffffffffffffffffff1673ffffffffffffffffffffffffffffffffffffffff16815260200190815260200160002054905090565b60016020528060005260406000206000915090505481565b60008054906101000a900473ffffffffffffffffffffffffffffffffffffffff1673ffffffffffffffffffffffffffffffffffffffff163373ffffffffffffffffffffffffffffffffffffffff1614610370576040517f08c379a00000000000000000000000000000000000000000000000000000000081526004016103679061073e565b60405180910390fd5b80600160003073ffffffffffffffffffffffffffffffffffffffff1673ffffffffffffffffffffffffffffffffffffffff16815260200190815260200160002060008282546103bf91906107aa565b9250508190555050565b60008060009054906101000a900473ffffffffffffffffffffffffffffffffffffffff1673ffffffffffffffffffffffffffffffffffffffff163373ffffffffffffffffffffffffffffffffffffffff161461045a576040517f08c379a00000000000000000000000000000000000000000000000000000000081526004016104519061073e565b60405180910390fd5b47905090565b80600160003073ffffffffffffffffffffffffffffffffffffffff1673ffffffffffffffffffffffffffffffffffffffff1681526020019081526020016000205410156104e2576040517f08c379a00000000000000000000000000000000000000000000000000000000081526004016104d9906106fe565b60405180910390fd5b80670de0b6b3a76400006104f69190610800565b341015610538576040517f08c379a000000000000000000000000000000000000000000000000000000000815260040161052f9061075e565b60405180910390fd5b80600160003073ffffffffffffffffffffffffffffffffffffffff1673ffffffffffffffffffffffffffffffffffffffff1681526020019081526020016000206000828254610587919061085a565b9250508190555080600160003373ffffffffffffffffffffffffffffffffffffffff1673ffffffffffffffffffffffffffffffffffffffff16815260200190815260200160002060008282546105dd91906107aa565b9250508190555050565b6000813590506105f6816109c3565b92915050565b60008135905061060b816109da565b92915050565b60006020828403121561062357600080fd5b6000610631848285016105e7565b91505092915050565b60006020828403121561064c57600080fd5b600061065a848285016105fc565b91505092915050565b6000610670603383610799565b915061067b826108f9565b604082019050919050565b6000610693601b83610799565b915061069e82610948565b602082019050919050565b60006106b6601583610799565b91506106c182610971565b602082019050919050565b60006106d9601783610799565b91506106e48261099a565b602082019050919050565b6106f8816108c0565b82525050565b6000602082019050818103600083015261071781610663565b9050919050565b6000602082019050818103600083015261073781610686565b9050919050565b60006020820190508181036000830152610757816106a9565b9050919050565b60006020820190508181036000830152610777816106cc565b9050919050565b600060208201905061079360008301846106ef565b92915050565b600082825260208201905092915050565b60006107b5826108c0565b91506107c0836108c0565b9250827fffffffffffffffffffffffffffffffffffffffffffffffffffffffffffffffff038211156107f5576107f46108ca565b5b828201905092915050565b600061080b826108c0565b9150610816836108c0565b9250817fffffffffffffffffffffffffffffffffffffffffffffffffffffffffffffffff048311821515161561084f5761084e6108ca565b5b828202905092915050565b6000610865826108c0565b9150610870836108c0565b925082821015610883576108826108ca565b5b828203905092915050565b6000610899826108a0565b9050919050565b600073ffffffffffffffffffffffffffffffffffffffff82169050919050565b6000819050919050565b7f4e487b7100000000000000000000000000000000000000000000000000000000600052601160045260246000fd5b7f4e6f7420656e6f75676820646f6e75747320696e2073746f636b20746f20667560008201527f6c6c66696c6c20796f7572207265717565737400000000000000000000000000602082015250565b7f5468657265206973206e6f206361736820696e206d616368696e650000000000600082015250565b7f596f7520617265206e6f7420746865206f776e65720000000000000000000000600082015250565b7f5061796d656e7420696e20696e73756666696369656e74000000000000000000600082015250565b6109cc8161088e565b81146109d757600080fd5b50565b6109e3816108c0565b81146109ee57600080fd5b5056fea26469706673582212207731e61605a6616529e58f6d876f1a9b4da00e20da9a5979edb4a38b04e59df264736f6c63430008040033",
  "linkReferences": {},
  "deployedLinkReferences": {}
}